011000034O0110000150122415000000000BANK OF AMERICA, N.A.               1000 PEACHTREE ST N.E.              ATLANTA             GA303094470877372245711     
011000024O0110000151021621000000000FEDERAL RESERVE BANK                JAB2NW                              N. QUINCY           MA021710000617786300011     
011000166O0110000151101310000000000STATE STREET BANK AND TRUST COMPANY 8001 VILLA PARK DRIVE               HENRICO             VA232280000800446013511     
011000290O0110000151050718000000000FEDERAL RESERVE BANK                PO BOX 27025                        RICHMOND            VA232617025800446013511