T2023 59600187407L40       T STATE OF FLORIDA                        CHIEF FINANCIAL OFFICER                 STATE OF FLORIDA                        CHIEF FINANCIAL OFFICER                 200 E. GAINES STREET                    TALLAHASSEE                             FL323990354               99999900ANGIE MARTIN                            8504135363     Angie.Martin@myfloridacfo.com                                                                                                                                  I                                                                                                                                                                                                                                        
A2023      596001874     A 12367C                   STATE OF FLORIDA                        CHIEF FINANCIAL OFFICER                 0200 E. GAINES STREET                    TALLAHASSEE                             FL3239903548504135519                                                                                                                                                                                                                                                                         00000002                                                                                                                                                                                                                                                   
B2023G    1543276587A5432765872023                    000000046257000000918273000000827639000000000000000000000000000000012342000000032341000000000000000000000000000000000000000000000000000000004123000000000000000000000000000000000000000000000000000000000000000000000000                 Florida Chemicals Ltd                   DBA Florida CHEM                        1234 Address Way                                                                Tampa                                   FL33881     00000003                                                                                                                                                                                                                                                   
C00000001      000000000000046257000000000000018273000000000000827639000000000000000000000000000000000000000000000000123420000000000000323410000000000000000000000000000000000000000000000000000000000000000000000000000000000000004123000000000000000000000000000000000000000000000000000000000000000000000000                                                                                                                                                                                                    00000004                                                                                                                                                                                                                                                   
F00000001000000000000000000000                   00000002                                                                                                                                                                                                                                                                                                                                                                                                                                                          00000008                                                                                                                                                                                                                                                   
                                                                                                                                                                                                                                                                                                                                                                                                                                                       00000008                                                                                                                                                                                                                                                   
