159600187400012020R01R    FL00000000Department of Agriculture                                                                             DEPARTMENT OF FINANCIAL SERVICES        BUREAU OF VENDOR RELATIONS    VENDOR MANAGEMENT SECTION     200 E GAINES STREET           TALLAHASSEE                   FL323990354USA8504135519                                                                                                                                                                                                                                                                                                    921990     
2000001PCSMITH COMPANY THE                                                                                         1234 Address Way              Apt  567                                                    TALLAHASSEE                                       FL323990354   123456789  000000000000000020200102CK060000025373                                              0000025373 0000000                                  000000000000                        000000000000                                  000000000000                    000000123456                                                          PAOT                     
2000002PCMEYER                                                                                                     1234 Address Way              Apt  568                                                    TALLAHASSEE                                       FL323990354   123456790  000000000000000020200304CK060000015000                                              0000015000 0000000                                  000000000000                        000000000000                                  000000000000                    012345678000                                                          PAOT                     
2000003PCCHRISTOPHER                                                                                               1234 Address Way              Apt  569                                                    TALLAHASSEE                                       FL323990354   123456791  000000000000000020200506CK060000250000                                              0000250000 0000000                                  000000000000                        000000000000                                  000000000000                    01234567891                                                           PAOT                     
2000004PCPALMA                                                                                                     1234 Address Way              Apt  517                                                    TALLAHASSEE                                       FL323990354   123456792  000000000000000020200708CK060000425000                                              0000425000 0000000                                  000000000000                        000000000000                                  000000000000                    0123456782                                                            PAOT                     
900000600000400000000000000000000000000000000000000000000000000000000000000000071537300000000000000000000000000000000000000000000000000000000                                                                                                                                                                                                                                                                                                                                                                                                                                                                                                    




